{
  "contractName": "SupplyChain",
  "abi": [
    {
      "inputs": [],
      "name": "productCount",
      "outputs": [
        {
          "internalType": "uint256",
          "name": "",
          "type": "uint256"
        }
      ],
      "stateMutability": "view",
      "type": "function",
      "constant": true
    },
    {
      "inputs": [
        {
          "internalType": "uint256",
          "name": "",
          "type": "uint256"
        }
      ],
      "name": "products",
      "outputs": [
        {
          "internalType": "uint256",
          "name": "id",
          "type": "uint256"
        },
        {
          "internalType": "string",
          "name": "name",
          "type": "string"
        },
        {
          "internalType": "uint256",
          "name": "price",
          "type": "uint256"
        },
        {
          "internalType": "address",
          "name": "owner",
          "type": "address"
        },
        {
          "internalType": "uint256",
          "name": "timestamp",
          "type": "uint256"
        }
      ],
      "stateMutability": "view",
      "type": "function",
      "constant": true
    },
    {
      "inputs": [
        {
          "internalType": "string",
          "name": "_name",
          "type": "string"
        },
        {
          "internalType": "uint256",
          "name": "_price",
          "type": "uint256"
        }
      ],
      "name": "addProduct",
      "outputs": [],
      "stateMutability": "nonpayable",
      "type": "function"
    },
    {
      "inputs": [
        {
          "internalType": "uint256",
          "name": "_productId",
          "type": "uint256"
        },
        {
          "internalType": "address",
          "name": "_newOwner",
          "type": "address"
        }
      ],
      "name": "transferProduct",
      "outputs": [],
      "stateMutability": "nonpayable",
      "type": "function"
    },
    {
      "inputs": [
        {
          "internalType": "uint256",
          "name": "_productId",
          "type": "uint256"
        }
      ],
      "name": "getProduct",
      "outputs": [
        {
          "internalType": "string",
          "name": "",
          "type": "string"
        },
        {
          "internalType": "uint256",
          "name": "",
          "type": "uint256"
        },
        {
          "internalType": "address",
          "name": "",
          "type": "address"
        },
        {
          "internalType": "uint256",
          "name": "",
          "type": "uint256"
        }
      ],
      "stateMutability": "view",
      "type": "function",
      "constant": true
    }
  ],
  "bytecode": "0x608060405234801561001057600080fd5b50610726806100206000396000f3fe608060405234801561001057600080fd5b50600436106100575760003560e01c80637acc0b201461005c578063b15247d914610089578063b9db15b41461009e578063e0f6ef87146100c1578063e43059e5146100d6575b600080fd5b61006f61006a366004610514565b6100e9565b604051610080959493929190610639565b60405180910390f35b61009c61009736600461046d565b6101ac565b005b6100b16100ac366004610514565b610255565b60405161008094939291906105b1565b6100c9610367565b6040516100809190610630565b61009c6100e436600461052c565b61036d565b6000602081905290815260409020805460018201805491929161010b90610678565b80601f016020809104026020016040519081016040528092919081815260200182805461013790610678565b80156101845780601f1061015957610100808354040283529160200191610184565b820191906000526020600020905b81548152906001019060200180831161016757829003601f168201915b5050505060028301546003840154600490940154929390926001600160a01b03909116915085565b600180549060006101bc836106b3565b90915550506040805160a08101825260018054808352602080840187815284860187905233606086015242608086015260009283528282529490912083518155935180519394936102149385019291909101906103d4565b506040820151600282015560608201516003820180546001600160a01b0319166001600160a01b039092169190911790556080909101516004909101555050565b60606000806000806000808781526020019081526020016000206040518060a00160405290816000820154815260200160018201805461029490610678565b80601f01602080910402602001604051908101604052809291908181526020018280546102c090610678565b801561030d5780601f106102e25761010080835404028352916020019161030d565b820191906000526020600020905b8154815290600101906020018083116102f057829003601f168201915b5050509183525050600282015460208083019190915260038301546001600160a01b031660408084019190915260049093015460609283015283015191830151908301516080909301519199909850919650945092505050565b60015481565b600082815260208190526040902060038101546001600160a01b031633146103b05760405162461bcd60e51b81526004016103a7906105e9565b60405180910390fd5b60030180546001600160a01b0319166001600160a01b039290921691909117905550565b8280546103e090610678565b90600052602060002090601f0160209004810192826104025760008555610448565b82601f1061041b57805160ff1916838001178555610448565b82800160010185558215610448579182015b8281111561044857825182559160200191906001019061042d565b50610454929150610458565b5090565b5b808211156104545760008155600101610459565b6000806040838503121561047f578182fd5b823567ffffffffffffffff80821115610496578384fd5b818501915085601f8301126104a9578384fd5b81356020828211156104bd576104bd6106da565b604051601f8301601f19168101820184811182821017156104e0576104e06106da565b60405282815284830182018910156104f6578687fd5b82828601838301379182018101959095529694909301359450505050565b600060208284031215610525578081fd5b5035919050565b6000806040838503121561053e578182fd5b8235915060208301356001600160a01b038116811461055b578182fd5b809150509250929050565b60008151808452815b8181101561058b5760208185018101518683018201520161056f565b8181111561059c5782602083870101525b50601f01601f19169290920160200192915050565b6000608082526105c46080830187610566565b6020830195909552506001600160a01b03929092166040830152606090910152919050565b60208082526027908201527f4f6e6c7920746865206f776e65722063616e207472616e7366657220746865206040820152661c1c9bd91d58dd60ca1b606082015260800190565b90815260200190565b600086825260a0602083015261065260a0830187610566565b6040830195909552506001600160a01b0392909216606083015260809091015292915050565b60028104600182168061068c57607f821691505b602082108114156106ad57634e487b7160e01b600052602260045260246000fd5b50919050565b60006000198214156106d357634e487b7160e01b81526011600452602481fd5b5060010190565b634e487b7160e01b600052604160045260246000fdfea26469706673582212202f52bb673efa55d692eba667f4d810987d59a344bbabbebb532eef4d972e22d664736f6c63430008000033",
  "immutableReferences": {},
  "source": "// SPDX-License-Identifier: MIT\r\npragma solidity ^0.8.0;\r\n\r\ncontract SupplyChain {\r\n    struct Product {\r\n        uint id;\r\n        string name;\r\n        uint price;\r\n        address owner;\r\n        uint timestamp;\r\n    }\r\n\r\n    mapping(uint => Product) public products;\r\n    uint public productCount;\r\n\r\n    function addProduct(string memory _name, uint _price) public {\r\n        productCount++;\r\n        products[productCount] = Product(productCount, _name, _price, msg.sender, block.timestamp);\r\n    }\r\n\r\n    function transferProduct(uint _productId, address _newOwner) public {\r\n        Product storage product = products[_productId];\r\n        require(msg.sender == product.owner, \"Only the owner can transfer the product\");\r\n        product.owner = _newOwner;\r\n    }\r\n\r\n    function getProduct(uint _productId) public view returns (string memory, uint, address, uint) {\r\n        Product memory product = products[_productId];\r\n        return (product.name, product.price, product.owner, product.timestamp);\r\n    }\r\n}\r\n",
  "sourcePath": "D:\\supply-chain\\contracts\\SupplyChain.sol",
  "compiler": {
    "name": "solc",
    "version": "0.8.0+commit.c7dfd78e.Emscripten.clang"
  },
  "schemaVersion": "3.4.16",
  "updatedAt": "2025-02-18T16:17:54.864Z",
  "networkType": "ethereum",
  "devdoc": {
    "kind": "dev",
    "methods": {},
    "version": 1
  },
  "userdoc": {
    "kind": "user",
    "methods": {},
    "version": 1
  }
}